{
  "contractName": "JUSDToken",
  "abi": [
    {
      "inputs": [],
      "stateMutability": "nonpayable",
      "type": "constructor"
    },
    {
      "anonymous": false,
      "inputs": [
        {
          "indexed": true,
          "internalType": "address",
          "name": "owner",
          "type": "address"
        },
        {
          "indexed": true,
          "internalType": "address",
          "name": "spender",
          "type": "address"
        },
        {
          "indexed": false,
          "internalType": "uint256",
          "name": "value",
          "type": "uint256"
        }
      ],
      "name": "Approve",
      "type": "event"
    },
    {
      "anonymous": false,
      "inputs": [
        {
          "indexed": true,
          "internalType": "address",
          "name": "from",
          "type": "address"
        },
        {
          "indexed": true,
          "internalType": "address",
          "name": "to",
          "type": "address"
        },
        {
          "indexed": false,
          "internalType": "uint256",
          "name": "value",
          "type": "uint256"
        }
      ],
      "name": "Transfer",
      "type": "event"
    },
    {
      "inputs": [
        {
          "internalType": "address",
          "name": "",
          "type": "address"
        },
        {
          "internalType": "address",
          "name": "",
          "type": "address"
        }
      ],
      "name": "allowance",
      "outputs": [
        {
          "internalType": "uint256",
          "name": "",
          "type": "uint256"
        }
      ],
      "stateMutability": "view",
      "type": "function",
      "constant": true
    },
    {
      "inputs": [
        {
          "internalType": "address",
          "name": "",
          "type": "address"
        }
      ],
      "name": "balances",
      "outputs": [
        {
          "internalType": "uint256",
          "name": "",
          "type": "uint256"
        }
      ],
      "stateMutability": "view",
      "type": "function",
      "constant": true
    },
    {
      "inputs": [],
      "name": "decimals",
      "outputs": [
        {
          "internalType": "uint256",
          "name": "",
          "type": "uint256"
        }
      ],
      "stateMutability": "view",
      "type": "function",
      "constant": true
    },
    {
      "inputs": [],
      "name": "name",
      "outputs": [
        {
          "internalType": "string",
          "name": "",
          "type": "string"
        }
      ],
      "stateMutability": "view",
      "type": "function",
      "constant": true
    },
    {
      "inputs": [],
      "name": "symbol",
      "outputs": [
        {
          "internalType": "string",
          "name": "",
          "type": "string"
        }
      ],
      "stateMutability": "view",
      "type": "function",
      "constant": true
    },
    {
      "inputs": [],
      "name": "totalSupply",
      "outputs": [
        {
          "internalType": "uint256",
          "name": "",
          "type": "uint256"
        }
      ],
      "stateMutability": "view",
      "type": "function",
      "constant": true
    },
    {
      "inputs": [],
      "name": "ownerBalance",
      "outputs": [
        {
          "internalType": "uint256",
          "name": "",
          "type": "uint256"
        }
      ],
      "stateMutability": "nonpayable",
      "type": "function"
    },
    {
      "inputs": [
        {
          "internalType": "address",
          "name": "owner",
          "type": "address"
        }
      ],
      "name": "balanceOf",
      "outputs": [
        {
          "internalType": "uint256",
          "name": "",
          "type": "uint256"
        }
      ],
      "stateMutability": "view",
      "type": "function",
      "constant": true
    },
    {
      "inputs": [
        {
          "internalType": "address",
          "name": "to",
          "type": "address"
        },
        {
          "internalType": "uint256",
          "name": "value",
          "type": "uint256"
        }
      ],
      "name": "transfer",
      "outputs": [
        {
          "internalType": "bool",
          "name": "",
          "type": "bool"
        }
      ],
      "stateMutability": "nonpayable",
      "type": "function"
    },
    {
      "inputs": [
        {
          "internalType": "address",
          "name": "from",
          "type": "address"
        },
        {
          "internalType": "address",
          "name": "to",
          "type": "address"
        },
        {
          "internalType": "uint256",
          "name": "value",
          "type": "uint256"
        }
      ],
      "name": "transferFrom",
      "outputs": [
        {
          "internalType": "bool",
          "name": "success",
          "type": "bool"
        }
      ],
      "stateMutability": "nonpayable",
      "type": "function"
    },
    {
      "inputs": [
        {
          "internalType": "address",
          "name": "spender",
          "type": "address"
        },
        {
          "internalType": "uint256",
          "name": "value",
          "type": "uint256"
        }
      ],
      "name": "approve",
      "outputs": [
        {
          "internalType": "bool",
          "name": "",
          "type": "bool"
        }
      ],
      "stateMutability": "nonpayable",
      "type": "function"
    }
  ],
  "bytecode": "0x60806040526402540be4006002556040518060400160405280601081526020017f4a41434b20537461626c6520436f696e0000000000000000000000000000000081525060039080519060200190610058929190610101565b506040518060400160405280600481526020017f4a55534400000000000000000000000000000000000000000000000000000000815250600490805190602001906100a4929190610101565b5060026005553480156100b657600080fd5b506002546000803373ffffffffffffffffffffffffffffffffffffffff1673ffffffffffffffffffffffffffffffffffffffff168152602001908152602001600020819055506101ac565b828054600181600116156101000203166002900490600052602060002090601f016020900481019282610137576000855561017e565b82601f1061015057805160ff191683800117855561017e565b8280016001018555821561017e579182015b8281111561017d578251825591602001919060010190610162565b5b50905061018b919061018f565b5090565b5b808211156101a8576000816000905550600101610190565b5090565b610abf806101bb6000396000f3fe608060405234801561001057600080fd5b50600436106100a95760003560e01c8063313ce56711610071578063313ce5671461028f57806370a08231146102ad57806395d89b4114610305578063a9059cbb14610388578063bedcf003146103ec578063dd62ed3e1461040a576100a9565b806306fdde03146100ae578063095ea7b31461013157806318160ddd1461019557806323b872dd146101b357806327e235e314610237575b600080fd5b6100b6610482565b6040518080602001828103825283818151815260200191508051906020019080838360005b838110156100f65780820151818401526020810190506100db565b50505050905090810190601f1680156101235780820380516001836020036101000a031916815260200191505b509250505060405180910390f35b61017d6004803603604081101561014757600080fd5b81019080803573ffffffffffffffffffffffffffffffffffffffff16906020019092919080359060200190929190505050610520565b60405180821515815260200191505060405180910390f35b61019d610612565b6040518082815260200191505060405180910390f35b61021f600480360360608110156101c957600080fd5b81019080803573ffffffffffffffffffffffffffffffffffffffff169060200190929190803573ffffffffffffffffffffffffffffffffffffffff16906020019092919080359060200190929190505050610618565b60405180821515815260200191505060405180910390f35b6102796004803603602081101561024d57600080fd5b81019080803573ffffffffffffffffffffffffffffffffffffffff169060200190929190505050610793565b6040518082815260200191505060405180910390f35b6102976107ab565b6040518082815260200191505060405180910390f35b6102ef600480360360208110156102c357600080fd5b81019080803573ffffffffffffffffffffffffffffffffffffffff1690602001909291905050506107b1565b6040518082815260200191505060405180910390f35b61030d6107f9565b6040518080602001828103825283818151815260200191508051906020019080838360005b8381101561034d578082015181840152602081019050610332565b50505050905090810190601f16801561037a5780820380516001836020036101000a031916815260200191505b509250505060405180910390f35b6103d46004803603604081101561039e57600080fd5b81019080803573ffffffffffffffffffffffffffffffffffffffff16906020019092919080359060200190929190505050610897565b60405180821515815260200191505060405180910390f35b6103f4610a1e565b6040518082815260200191505060405180910390f35b61046c6004803603604081101561042057600080fd5b81019080803573ffffffffffffffffffffffffffffffffffffffff169060200190929190803573ffffffffffffffffffffffffffffffffffffffff169060200190929190505050610a64565b6040518082815260200191505060405180910390f35b60038054600181600116156101000203166002900480601f0160208091040260200160405190810160405280929190818152602001828054600181600116156101000203166002900480156105185780601f106104ed57610100808354040283529160200191610518565b820191906000526020600020905b8154815290600101906020018083116104fb57829003601f168201915b505050505081565b600081600160003373ffffffffffffffffffffffffffffffffffffffff1673ffffffffffffffffffffffffffffffffffffffff16815260200190815260200160002060008573ffffffffffffffffffffffffffffffffffffffff1673ffffffffffffffffffffffffffffffffffffffff168152602001908152602001600020819055508273ffffffffffffffffffffffffffffffffffffffff163373ffffffffffffffffffffffffffffffffffffffff167f6e11fb1b7f119e3f2fa29896ef5fdf8b8a2d0d4df6fe90ba8668e7d8b2ffa25e846040518082815260200191505060405180910390a36001905092915050565b60025481565b6000816000808673ffffffffffffffffffffffffffffffffffffffff1673ffffffffffffffffffffffffffffffffffffffff16815260200190815260200160002054101561066557600080fd5b6000808473ffffffffffffffffffffffffffffffffffffffff1673ffffffffffffffffffffffffffffffffffffffff16815260200190815260200160002054826000808673ffffffffffffffffffffffffffffffffffffffff1673ffffffffffffffffffffffffffffffffffffffff168152602001908152602001600020540110156106f057600080fd5b816000808673ffffffffffffffffffffffffffffffffffffffff1673ffffffffffffffffffffffffffffffffffffffff16815260200190815260200160002060008282540392505081905550816000808573ffffffffffffffffffffffffffffffffffffffff1673ffffffffffffffffffffffffffffffffffffffff16815260200190815260200160002060008282540192505081905550600190509392505050565b60006020528060005260406000206000915090505481565b60055481565b60008060008373ffffffffffffffffffffffffffffffffffffffff1673ffffffffffffffffffffffffffffffffffffffff168152602001908152602001600020549050919050565b60048054600181600116156101000203166002900480601f01602080910402602001604051908101604052809291908181526020018280546001816001161561010002031660029004801561088f5780601f106108645761010080835404028352916020019161088f565b820191906000526020600020905b81548152906001019060200180831161087257829003601f168201915b505050505081565b6000816108a3336107b1565b1015610917576040517f08c379a000000000000000000000000000000000000000000000000000000000815260040180806020018281038252600f8152602001807f62616c616e636520746f6f206c6f77000000000000000000000000000000000081525060200191505060405180910390fd5b816000808573ffffffffffffffffffffffffffffffffffffffff1673ffffffffffffffffffffffffffffffffffffffff16815260200190815260200160002060008282540192505081905550816000803373ffffffffffffffffffffffffffffffffffffffff1673ffffffffffffffffffffffffffffffffffffffff168152602001908152602001600020600082825403925050819055508273ffffffffffffffffffffffffffffffffffffffff163373ffffffffffffffffffffffffffffffffffffffff167fddf252ad1be2c89b69c2b068fc378daa952ba7f163c4a11628f55a4df523b3ef846040518082815260200191505060405180910390a36001905092915050565b60008060003373ffffffffffffffffffffffffffffffffffffffff1673ffffffffffffffffffffffffffffffffffffffff16815260200190815260200160002054905090565b600160205281600052604060002060205280600052604060002060009150915050548156fea264697066735822122016c9b3caf16457a0b5b70199eb523b1735ecf6c325925b4ae75bd8bc07a8a94964736f6c63430007060033",
  "immutableReferences": {},
  "source": "pragma solidity ^0.7.4;\n\ncontract JUSDToken{\n\n\t/* \n\t\t# JUSD Token \n\t\tName : Jack Stable Coin\n\t\tTotalSupply : 100,000,000 Token\n\t\tDecimals: 2 digits\n\n\t\t# Developer\n\t\tBy : S.Waranat\n\t*/\n\n\tmapping(address => uint) public balances;\n    mapping(address => mapping(address => uint)) public allowance;\n\n    uint public \ttotalSupply \t= 10000000000 ;\n\tstring public \tname \t\t\t= \"JACK Stable Coin\";\n\tstring public \tsymbol \t\t\t= \"JUSD\";\n\tuint public \tdecimals \t\t= 2;\n\n\t/*\n\t *\tConstructure function for make first totalSupply\n\t*/\n\tconstructor(){\n    \tbalances[msg.sender] = totalSupply;\n  \t}\n\n  \tfunction ownerBalance() public returns(uint){\n    \treturn balances[msg.sender];\n\t}\n\n  \tfunction balanceOf(address owner) public view returns(uint){\n    \treturn balances[owner];\n  \t}\n\n  \t/*\n  \t *\ttransfer - (Function)\n  \t *\t- This function use for transfer Token\n  \t*/\n  \tfunction transfer(address to, uint value) public returns(bool){\n\t    require(balanceOf(msg.sender) >= value, 'balance too low');\n\t    balances[to] += value;\n\t    balances[msg.sender] -= value;\n\t    emit Transfer(msg.sender, to, value);\n\t    return true;\n  \t}\n\n  \t/*\n\t *\ttransferFrom - (Function)\n\t *\t-  This function reserve for wallet call for send JUSD token to another address\n\t *\t   with function send on web3 wallet (etc. metamask)\n  \t*/\n  \tfunction transferFrom(address from, address to, uint value) public returns(bool success){\n\t      // require(balanceOf(from) >= value, 'Balance too Low');\n\t      // require(allowance[from][msg.sender] >= value, 'Allowance too Low');\n\t      // balances[to] += value;\n\t      // balances[from] -= value;\n\t      // emit Transfer(from,to,value);\n\t      // return true;\n\t\t    require(balances[from] >= value);                \n\t        require(balances[to] + value >= balances[to]);\n\t        balances[from] -= value;\n\t        balances[to] += value;\n\t        return true;\n    }\n\n    function approve(address spender, uint value) public returns(bool){\n\t        allowance[msg.sender][spender] = value;\n\t        emit Approve(msg.sender, spender, value);\n\t        return true;\n    }\n\n\n    event Transfer(\n    \taddress indexed from, \n    \taddress indexed to, \n    \tuint value\n    );\n\n\tevent Approve(\n\t\taddress indexed owner, \n\t\taddress indexed spender, \n\t\tuint value\n\t);\n\n}",
  "sourcePath": "/Users/aomwara/Desktop/ethershop/contracts/JUSD.sol",
  "compiler": {
    "name": "solc",
    "version": "0.7.6+commit.7338295f.Emscripten.clang"
  },
  "schemaVersion": "3.4.0",
  "updatedAt": "2021-05-13T17:08:29.946Z",
  "networkType": "ethereum",
  "devdoc": {
    "kind": "dev",
    "methods": {},
    "version": 1
  },
  "userdoc": {
    "kind": "user",
    "methods": {},
    "version": 1
  }
}