{
  "contractName": "Shop",
  "abi": [
    {
      "inputs": [
        {
          "internalType": "address",
          "name": "_tokenAddress",
          "type": "address"
        }
      ],
      "stateMutability": "nonpayable",
      "type": "constructor"
    },
    {
      "anonymous": false,
      "inputs": [
        {
          "indexed": false,
          "internalType": "uint256",
          "name": "order_id",
          "type": "uint256"
        },
        {
          "indexed": false,
          "internalType": "uint256",
          "name": "item_count",
          "type": "uint256"
        },
        {
          "indexed": false,
          "internalType": "uint256",
          "name": "total",
          "type": "uint256"
        }
      ],
      "name": "orderCreated",
      "type": "event"
    },
    {
      "inputs": [],
      "name": "order_count",
      "outputs": [
        {
          "internalType": "uint256",
          "name": "",
          "type": "uint256"
        }
      ],
      "stateMutability": "view",
      "type": "function",
      "constant": true
    },
    {
      "inputs": [
        {
          "internalType": "uint256",
          "name": "",
          "type": "uint256"
        }
      ],
      "name": "orders",
      "outputs": [
        {
          "internalType": "uint256",
          "name": "order_id",
          "type": "uint256"
        },
        {
          "internalType": "uint256",
          "name": "item_count",
          "type": "uint256"
        },
        {
          "internalType": "address",
          "name": "account",
          "type": "address"
        },
        {
          "internalType": "uint256",
          "name": "total",
          "type": "uint256"
        }
      ],
      "stateMutability": "view",
      "type": "function",
      "constant": true
    },
    {
      "inputs": [],
      "name": "ownerBalance",
      "outputs": [
        {
          "internalType": "uint256",
          "name": "",
          "type": "uint256"
        }
      ],
      "stateMutability": "nonpayable",
      "type": "function"
    },
    {
      "inputs": [
        {
          "internalType": "uint256[]",
          "name": "ids",
          "type": "uint256[]"
        },
        {
          "internalType": "uint256",
          "name": "total",
          "type": "uint256"
        }
      ],
      "name": "createOrder",
      "outputs": [],
      "stateMutability": "nonpayable",
      "type": "function"
    },
    {
      "inputs": [
        {
          "internalType": "uint256",
          "name": "id",
          "type": "uint256"
        }
      ],
      "name": "getOrder",
      "outputs": [
        {
          "internalType": "uint256",
          "name": "order_id",
          "type": "uint256"
        },
        {
          "internalType": "uint256",
          "name": "item_count",
          "type": "uint256"
        },
        {
          "internalType": "address",
          "name": "account",
          "type": "address"
        },
        {
          "internalType": "uint256",
          "name": "total",
          "type": "uint256"
        }
      ],
      "stateMutability": "nonpayable",
      "type": "function"
    },
    {
      "inputs": [
        {
          "internalType": "uint256",
          "name": "order_id",
          "type": "uint256"
        },
        {
          "internalType": "uint256",
          "name": "item_index",
          "type": "uint256"
        }
      ],
      "name": "getItem",
      "outputs": [
        {
          "internalType": "uint256",
          "name": "item_id",
          "type": "uint256"
        }
      ],
      "stateMutability": "nonpayable",
      "type": "function"
    }
  ],
  "bytecode": "0x60806040526000805534801561001457600080fd5b50604051610abc380380610abc83398181016040528101906100369190610092565b80600260006101000a81548173ffffffffffffffffffffffffffffffffffffffff021916908373ffffffffffffffffffffffffffffffffffffffff16021790555050610104565b60008151905061008c816100ed565b92915050565b6000602082840312156100a457600080fd5b60006100b28482850161007d565b91505092915050565b60006100c6826100cd565b9050919050565b600073ffffffffffffffffffffffffffffffffffffffff82169050919050565b6100f6816100bb565b811461010157600080fd5b50565b6109a9806101136000396000f3fe608060405234801561001057600080fd5b50600436106100625760003560e01c80632a1f1199146100675780633c00a96a1461008557806359cc334a146100a1578063a85c38ef146100d1578063bedcf00314610104578063d09ef24114610122575b600080fd5b61006f610155565b60405161007c91906107d1565b60405180910390f35b61009f600480360381019061009a9190610662565b61015b565b005b6100bb60048036038101906100b69190610731565b6103d1565b6040516100c891906107d1565b60405180910390f35b6100eb60048036038101906100e691906106df565b610403565b6040516100fb94939291906107ec565b60405180910390f35b61010c610453565b60405161011991906107d1565b60405180910390f35b61013c600480360381019061013791906106df565b6104fc565b60405161014c94939291906107ec565b60405180910390f35b60005481565b600073ffffffffffffffffffffffffffffffffffffffff163373ffffffffffffffffffffffffffffffffffffffff16141561019557600080fd5b60008251116101a357600080fd5b60008054600160008054815260200190815260200160002060000181905550825160016000805481526020019081526020016000206002018190555033600160008054815260200190815260200160002060030160006101000a81548173ffffffffffffffffffffffffffffffffffffffff021916908373ffffffffffffffffffffffffffffffffffffffff1602179055508160016000805481526020019081526020016000206004018190555060005b83518110156102c65783818151811061026957fe5b60200260200101516001600080548152602001908152602001600020600101600083815260200190815260200160002081905550600160008054815260200190815260200160002060040154820191508080600101915050610254565b50600260009054906101000a900473ffffffffffffffffffffffffffffffffffffffff1673ffffffffffffffffffffffffffffffffffffffff166323b872dd336000606485026040518463ffffffff1660e01b815260040161032a9392919061079a565b602060405180830381600087803b15801561034457600080fd5b505af1158015610358573d6000803e3d6000fd5b505050506040513d601f19601f8201168201806040525081019061037c91906106b6565b5060008081548092919060010191905055507ff025e294473aed6acc1f23cc7695eda4a245ad2de27dae6a818137a6f15e572c6000548451846040516103c493929190610831565b60405180910390a1505050565b600060016000848152602001908152602001600020600101600083815260200190815260200160002054905092915050565b60016020528060005260406000206000915090508060000154908060020154908060030160009054906101000a900473ffffffffffffffffffffffffffffffffffffffff16908060040154905084565b6000600260009054906101000a900473ffffffffffffffffffffffffffffffffffffffff1673ffffffffffffffffffffffffffffffffffffffff1663bedcf0036040518163ffffffff1660e01b8152600401602060405180830381600087803b1580156104bf57600080fd5b505af11580156104d3573d6000803e3d6000fd5b505050506040513d601f19601f820116820180604052508101906104f79190610708565b905090565b600080600080600160008681526020019081526020016000206000015460016000878152602001908152602001600020600201546001600088815260200190815260200160002060030160009054906101000a900473ffffffffffffffffffffffffffffffffffffffff16600160008981526020019081526020016000206004015493509350935093509193509193565b60006105a061059b84610899565b610868565b905080838252602082019050828560208602820111156105bf57600080fd5b60005b858110156105ef57816105d58882610638565b8452602084019350602083019250506001810190506105c2565b5050509392505050565b600082601f83011261060a57600080fd5b813561061a84826020860161058d565b91505092915050565b60008151905061063281610945565b92915050565b6000813590506106478161095c565b92915050565b60008151905061065c8161095c565b92915050565b6000806040838503121561067557600080fd5b600083013567ffffffffffffffff81111561068f57600080fd5b61069b858286016105f9565b92505060206106ac85828601610638565b9150509250929050565b6000602082840312156106c857600080fd5b60006106d684828501610623565b91505092915050565b6000602082840312156106f157600080fd5b60006106ff84828501610638565b91505092915050565b60006020828403121561071a57600080fd5b60006107288482850161064d565b91505092915050565b6000806040838503121561074457600080fd5b600061075285828601610638565b925050602061076385828601610638565b9150509250929050565b6107768161090d565b82525050565b610785816108c5565b82525050565b61079481610903565b82525050565b60006060820190506107af600083018661076d565b6107bc602083018561076d565b6107c9604083018461078b565b949350505050565b60006020820190506107e6600083018461078b565b92915050565b6000608082019050610801600083018761078b565b61080e602083018661078b565b61081b604083018561077c565b610828606083018461078b565b95945050505050565b6000606082019050610846600083018661078b565b610853602083018561078b565b610860604083018461078b565b949350505050565b6000604051905081810181811067ffffffffffffffff8211171561088f5761088e610943565b5b8060405250919050565b600067ffffffffffffffff8211156108b4576108b3610943565b5b602082029050602081019050919050565b60006108d0826108e3565b9050919050565b60008115159050919050565b600073ffffffffffffffffffffffffffffffffffffffff82169050919050565b6000819050919050565b60006109188261091f565b9050919050565b600061092a82610931565b9050919050565b600061093c826108e3565b9050919050565bfe5b61094e816108d7565b811461095957600080fd5b50565b61096581610903565b811461097057600080fd5b5056fea264697066735822122031da1f05dcc82beef50a50961f3ef10c00739218441a71e44021cdff64584c7a64736f6c63430007060033",
  "immutableReferences": {},
  "source": "pragma experimental ABIEncoderV2;\n\n/* \n * Import JUSD Token for use function in contract \n*/\nimport './JUSDToken.sol';\n\ncontract Shop {\n\n    /* \n     *  # Shopping Contract\n     *  Name : Shop\n     *\n     *  # Developer\n     *  By : S.Waranat\n    */\n\n    uint public order_count = 0;\n\n    mapping(uint => Order) public orders;\n\n    JUSDToken token;\n\n    constructor (address _tokenAddress) public {\n        token = JUSDToken(_tokenAddress);\n    }\n\n    struct Order{\n        uint order_id;\n        mapping(uint => uint) items;\n        uint item_count;\n        address account;\n        uint total;\n    }\n\n    /* \n     *  Function Onwer Balance \n     *  - For user check balance and show on homepage\n     *  - when called will be use function in JUSD Token contract\n    */\n    function ownerBalance() public returns(uint){\n      return token.ownerBalance();\n    }\n\n    /*\n     *  Function createOrder\n     *  - create order and transfer JUSD Token to dev account\n    */\n    function createOrder(uint[] memory ids, uint total) public {\n        require(msg.sender != address(0));\n        require(ids.length > 0);\n        uint order_sum_price = 0;\n\n        orders[order_count].order_id = order_count;\n        orders[order_count].item_count = ids.length;\n        orders[order_count].account = msg.sender;\n        orders[order_count].total = total;\n\n        for (uint i = 0; i < ids.length; i++){\n          orders[order_count].items[i] = ids[i];\n          order_sum_price += orders[order_count].total;\n        }\n\n        token.transferFrom(msg.sender ,address(0), order_sum_price*100);\n\n        order_count ++;\n        emit orderCreated(order_count, ids.length, total);\n    }\n\n    /*\n     * Function getOrder\n     * - For get order in blockchain and parse on homepage\n    */\n    function getOrder(uint id) public returns (uint order_id, uint item_count, address account, uint total){\n        return (orders[id].order_id, orders[id].item_count, orders[id].account, orders[id].total);\n    }\n\n    function getItem(uint order_id, uint item_index) public returns (uint item_id){\n        return (orders[order_id].items[item_index]);\n    }\n\n    event orderCreated (\n        uint order_id,\n        uint item_count,\n        uint total\n    );\n}\n",
  "sourcePath": "/Users/aomwara/Desktop/ethershop/contracts/Shop.sol",
  "compiler": {
    "name": "solc",
    "version": "0.7.6+commit.7338295f.Emscripten.clang"
  },
  "schemaVersion": "3.4.0",
  "updatedAt": "2021-05-14T16:06:26.928Z",
  "networkType": "ethereum",
  "devdoc": {
    "kind": "dev",
    "methods": {},
    "version": 1
  },
  "userdoc": {
    "kind": "user",
    "methods": {},
    "version": 1
  }
}