{
  "contractName": "Shop",
  "abi": [
    {
      "inputs": [
        {
          "internalType": "address",
          "name": "_tokenAddress",
          "type": "address"
        }
      ],
      "stateMutability": "nonpayable",
      "type": "constructor"
    },
    {
      "anonymous": false,
      "inputs": [
        {
          "indexed": false,
          "internalType": "uint256",
          "name": "order_id",
          "type": "uint256"
        },
        {
          "indexed": false,
          "internalType": "uint256",
          "name": "item_count",
          "type": "uint256"
        },
        {
          "indexed": false,
          "internalType": "uint256",
          "name": "total",
          "type": "uint256"
        }
      ],
      "name": "orderCreated",
      "type": "event"
    },
    {
      "inputs": [],
      "name": "order_count",
      "outputs": [
        {
          "internalType": "uint256",
          "name": "",
          "type": "uint256"
        }
      ],
      "stateMutability": "view",
      "type": "function",
      "constant": true
    },
    {
      "inputs": [
        {
          "internalType": "uint256",
          "name": "",
          "type": "uint256"
        }
      ],
      "name": "orders",
      "outputs": [
        {
          "internalType": "uint256",
          "name": "order_id",
          "type": "uint256"
        },
        {
          "internalType": "uint256",
          "name": "item_count",
          "type": "uint256"
        },
        {
          "internalType": "address",
          "name": "account",
          "type": "address"
        },
        {
          "internalType": "uint256",
          "name": "total",
          "type": "uint256"
        }
      ],
      "stateMutability": "view",
      "type": "function",
      "constant": true
    },
    {
      "inputs": [],
      "name": "ownerBalance",
      "outputs": [
        {
          "internalType": "uint256",
          "name": "",
          "type": "uint256"
        }
      ],
      "stateMutability": "nonpayable",
      "type": "function"
    },
    {
      "inputs": [
        {
          "internalType": "uint256[]",
          "name": "ids",
          "type": "uint256[]"
        },
        {
          "internalType": "uint256",
          "name": "total",
          "type": "uint256"
        }
      ],
      "name": "createOrder",
      "outputs": [],
      "stateMutability": "nonpayable",
      "type": "function"
    },
    {
      "inputs": [
        {
          "internalType": "uint256",
          "name": "id",
          "type": "uint256"
        }
      ],
      "name": "getOrder",
      "outputs": [
        {
          "internalType": "uint256",
          "name": "order_id",
          "type": "uint256"
        },
        {
          "internalType": "uint256",
          "name": "item_count",
          "type": "uint256"
        },
        {
          "internalType": "address",
          "name": "account",
          "type": "address"
        },
        {
          "internalType": "uint256",
          "name": "total",
          "type": "uint256"
        }
      ],
      "stateMutability": "nonpayable",
      "type": "function"
    },
    {
      "inputs": [
        {
          "internalType": "uint256",
          "name": "order_id",
          "type": "uint256"
        },
        {
          "internalType": "uint256",
          "name": "item_index",
          "type": "uint256"
        }
      ],
      "name": "getItem",
      "outputs": [
        {
          "internalType": "uint256",
          "name": "item_id",
          "type": "uint256"
        }
      ],
      "stateMutability": "nonpayable",
      "type": "function"
    }
  ],
  "bytecode": "0x60806040526000805534801561001457600080fd5b506040516107d53803806107d58339818101604052602081101561003757600080fd5b810190808051906020019092919050505080600260006101000a81548173ffffffffffffffffffffffffffffffffffffffff021916908373ffffffffffffffffffffffffffffffffffffffff1602179055505061073c806100996000396000f3fe608060405234801561001057600080fd5b50600436106100625760003560e01c80632a1f1199146100675780633c00a96a1461008557806359cc334a14610147578063a85c38ef14610193578063bedcf00314610200578063d09ef2411461021e575b600080fd5b61006f61028b565b6040518082815260200191505060405180910390f35b6101456004803603604081101561009b57600080fd5b81019080803590602001906401000000008111156100b857600080fd5b8201836020820111156100ca57600080fd5b803590602001918460208302840111640100000000831117156100ec57600080fd5b919080806020026020016040519081016040528093929190818152602001838360200280828437600081840152601f19601f82011690508083019250505050505050919291929080359060200190929190505050610291565b005b61017d6004803603604081101561015d57600080fd5b810190808035906020019092919080359060200190929190505050610547565b6040518082815260200191505060405180910390f35b6101bf600480360360208110156101a957600080fd5b8101908080359060200190929190505050610579565b604051808581526020018481526020018373ffffffffffffffffffffffffffffffffffffffff16815260200182815260200194505050505060405180910390f35b6102086105c9565b6040518082815260200191505060405180910390f35b61024a6004803603602081101561023457600080fd5b8101908080359060200190929190505050610675565b604051808581526020018481526020018373ffffffffffffffffffffffffffffffffffffffff16815260200182815260200194505050505060405180910390f35b60005481565b600073ffffffffffffffffffffffffffffffffffffffff163373ffffffffffffffffffffffffffffffffffffffff1614156102cb57600080fd5b60008251116102d957600080fd5b600054600160008054815260200190815260200160002060000181905550815160016000805481526020019081526020016000206002018190555033600160008054815260200190815260200160002060030160006101000a81548173ffffffffffffffffffffffffffffffffffffffff021916908373ffffffffffffffffffffffffffffffffffffffff1602179055508060016000805481526020019081526020016000206004018190555060005b82518110156104e75782818151811061039e57fe5b60200260200101516001600080548152602001908152602001600020600101600083815260200190815260200160002081905550600260009054906101000a900473ffffffffffffffffffffffffffffffffffffffff1673ffffffffffffffffffffffffffffffffffffffff166323b872dd3360006064600160008054815260200190815260200160002060040154026040518463ffffffff1660e01b8152600401808473ffffffffffffffffffffffffffffffffffffffff1681526020018373ffffffffffffffffffffffffffffffffffffffff1681526020018281526020019350505050602060405180830381600087803b15801561049e57600080fd5b505af11580156104b2573d6000803e3d6000fd5b505050506040513d60208110156104c857600080fd5b8101908080519060200190929190505050508080600101915050610389565b5060008081548092919060010191905055507ff025e294473aed6acc1f23cc7695eda4a245ad2de27dae6a818137a6f15e572c60005483518360405180848152602001838152602001828152602001935050505060405180910390a15050565b600060016000848152602001908152602001600020600101600083815260200190815260200160002054905092915050565b60016020528060005260406000206000915090508060000154908060020154908060030160009054906101000a900473ffffffffffffffffffffffffffffffffffffffff16908060040154905084565b6000600260009054906101000a900473ffffffffffffffffffffffffffffffffffffffff1673ffffffffffffffffffffffffffffffffffffffff1663bedcf0036040518163ffffffff1660e01b8152600401602060405180830381600087803b15801561063557600080fd5b505af1158015610649573d6000803e3d6000fd5b505050506040513d602081101561065f57600080fd5b8101908080519060200190929190505050905090565b600080600080600160008681526020019081526020016000206000015460016000878152602001908152602001600020600201546001600088815260200190815260200160002060030160009054906101000a900473ffffffffffffffffffffffffffffffffffffffff1660016000898152602001908152602001600020600401549350935093509350919350919356fea2646970667358221220cc34d5939324ea0a35e6871fcfc396d832b5a8cd5e1a9ca4b96697e527b6b05564736f6c63430007060033",
  "immutableReferences": {},
  "source": "pragma solidity ^0.7.4;\n\n/* \n * Import JUSD Token for use function in contract \n*/\nimport './JUSDToken.sol';\n\ncontract Shop {\n\n    /* \n     *  # Shopping Contract\n     *  Name : Shop\n     *\n     *  # Developer\n     *  By : S.Waranat\n    */\n\n    uint public order_count = 0;\n    \n    mapping(uint => Order) public orders;\n\n    JUSDToken token;\n\n    constructor (address _tokenAddress) public {\n        token = JUSDToken(_tokenAddress);\n    }\n\n    struct Order{\n        uint order_id;\n        mapping(uint => uint) items;\n        uint item_count;\n        address account;\n        uint total;\n    }\n\n    /* \n     *  Function Onwer Balance \n     *  - For user check balance and show on homepage\n     *  - when called will be use function in JUSD Token contract\n    */\n    function ownerBalance() public returns(uint){\n      return token.ownerBalance();\n    }\n\n    /*\n     *  Function createOrder\n     *  - create order and transfer JUSD Token to dev account\n    */\n    function createOrder(uint[] memory ids, uint total) public {\n        require(msg.sender != address(0));\n        require(ids.length > 0);\n\n        orders[order_count].order_id = order_count;\n        orders[order_count].item_count = ids.length;\n        orders[order_count].account = msg.sender;\n        orders[order_count].total = total;\n\n        for (uint i = 0; i < ids.length; i++){\n          orders[order_count].items[i] = ids[i];\n          token.transferFrom(msg.sender ,address(0), orders[order_count].total*100);\n        }\n\n        order_count ++;\n        emit orderCreated(order_count, ids.length, total);\n    }\n\n    /*\n     * Function getOrder\n     * - For get order in blockchain and parse on homepage\n    */\n    function getOrder(uint id) public returns (uint order_id, uint item_count, address account, uint total){\n        return (orders[id].order_id, orders[id].item_count, orders[id].account, orders[id].total);\n    }\n\n    function getItem(uint order_id, uint item_index) public returns (uint item_id){\n        return (orders[order_id].items[item_index]);\n    }\n\n    event orderCreated (\n        uint order_id,\n        uint item_count,\n        uint total\n    );\n}\n",
  "sourcePath": "/Users/aomwara/Desktop/ethershop/contracts/Shop.sol",
  "compiler": {
    "name": "solc",
    "version": "0.7.6+commit.7338295f.Emscripten.clang"
  },
  "schemaVersion": "3.4.0",
  "updatedAt": "2021-05-14T05:44:24.990Z",
  "networkType": "ethereum",
  "devdoc": {
    "kind": "dev",
    "methods": {},
    "version": 1
  },
  "userdoc": {
    "kind": "user",
    "methods": {},
    "version": 1
  }
}